:100000000C945D000C949B010C94C4010C947A0038
:100010000C947A000C947A000C947A000C947A0078
:100020000C947A000C947A000C947A000C947A0068
:100030000C9455020C947A000C947A000C947A007B
:100040000C947A000C947A000C947A000C947A0048
:100050000C947A00BA0DC90DD80DE70D760E760E08
:10006000760E1D0E240E760E760E760E760E760E1B
:10007000760E2B0E320E390E400E470E4E0E550EDA
:100080005C0E630E6D0E760E760E760E760E760E86
:10009000760EF60D050E760E760E760E760E760E32
:1000A000760E760E760E760E760E760E760E760E30
:1000B000760E760E760E760E140E11241FBECFE548
:1000C000D8E0DEBFCDBF10E0A0E6B0E0EEE1F2E2A6
:1000D00002C005900D92A237B107D9F710E0A2E750
:1000E000B0E001C01D92AF3AB107E1F70E94DF0E08
:1000F0000C940D110C9400000F931F93CF93DF937A
:1001000000D000D000D0CDB7DEB7142F49835A837A
:100110006B837C838D839E83723099F0733028F4D7
:10012000772399F0713039F40EC0743031F07430A7
:1001300030F0753061F000E00BC003E009C004E06E
:1001400007C005E005C006E003C007E001C002E00B
:1001500089E390E0612F40E00E940D011430A9F086
:10016000153038F4123069F0133068F4113039F476
:1001700014C0163071F0163050F0173061F080E086
:100180000DC082E00BC083E009C084E007C085E0B9
:1001900005C086E003C087E001C081E09B8191300B
:1001A00009F408609A81992319F0923021F402C071
:1001B000806401C0806C9E81913009F4806287B9AF
:1001C00006B9379A26960FB6F894DEBF0FBECDBF9C
:1001D000DF91CF911F910F910895CF93DF9300D0BE
:1001E00000D000D0CDB7DEB749835A836B837C83C0
:1001F0008D839E83369A369BFECF84B190E045B1C5
:10020000342F20E0822B932B26960FB6F894DEBF76
:100210000FBECDBFDF91CF910895FC01413029F091
:100220004130A8F04230B1F524C0218181E090E056
:10023000AC0102C0440F551F6A95E2F7BA01842F42
:100240008095822381838281682B62830895218136
:1002500081E090E0AC0102C0440F551F6A95E2F7BF
:10026000BA016095862F822381838281682362830D
:100270000895218181E090E0AC0102C0440F551F38
:100280006A95E2F7BA01822F842B8183828160957F
:10029000682362830895FC01442379F04130D1F44E
:1002A000228181E090E0AC0102C0440F551F6A95A5
:1002B000E2F7BA01622B62830895228181E090E027
:1002C000AC0102C0440F551F6A95E2F7BA01609570
:1002D000622362830895FC01208141E050E0CA015D
:1002E000062E02C0880F991F0A94E2F730E082239D
:1002F000932302C0959587956A95E2F70895FC01CE
:1003000061830895FC0162830895FC01828180E08D
:100310000895E199FECF07B600FCFDCF9FBB8EBBD1
:100320006DBBE29AE19A0895E199FECF9FBB8EBB27
:10033000E09A8DB308951F920F920FB60F92112479
:100340002F933F934F935F936F937F938F939F93DD
:10035000AF93BF93EF93FF93E0917600F091770016
:10036000309709F00995FF91EF91BF91AF919F915F
:100370008F917F916F915F914F913F912F910F904E
:100380000FBE0F901F9018951F920F920FB60F92ED
:1003900011242F933F934F935F936F937F938F938A
:1003A0009F93AF93BF93EF93FF93E0917400F0910D
:1003B0007500309709F00995FF91EF91BF91AF91CA
:1003C0009F918F917F916F915F914F913F912F916D
:1003D0000F900FBE0F901F901895813071F18130F2
:1003E00020F0823009F060C050C0613071F061309F
:1003F00028F0623089F06330E1F415C085B78E7F54
:1004000085BF85B78D7F85BF14C085B7816085BFE7
:1004100085B78D7F85BF0DC085B78E7F85BF85B7BA
:10042000826085BF06C085B7816085BF85B7826061
:1004300085BF8BB780648BBF0895613071F06130E8
:1004400028F0623089F06330E1F415C085B78B7F06
:1004500085BF85B7877F85BF14C085B7886085BF96
:1004600085B78B7F85BF0DC085B7877F85BF85B773
:10047000846085BF06C085B7886085BF85B7846006
:1004800085BF8BB780688BBF0895623019F06330E9
:1004900041F404C084B78F7B84BF03C084B78064F9
:1004A00084BF8BB780628BBF08951F920F920FB6E7
:1004B0000F9211242F933F934F935F936F937F93EA
:1004C0008F939F93AF93BF93EF93FF93E0917D0042
:1004D000F0917E00309709F00995FF91EF91BF915F
:1004E000AF919F918F917F916F915F914F913F91CC
:1004F0002F910F900FBE0F901F9018951DB81EB82A
:1005000080917800813009F07EC080917900882345
:1005100019F0813099F513C086E390E066E042E07F
:100520000E940D0186E390E065E040E00E940D012D
:1005300086E390E064E040E00E940D011FC06C9AE9
:1005400086E390E065E042E00E940D0186E390E0E2
:1005500064E042E00E940D0186E390E067E042E043
:100560000E940D0186E390E065E041E00E944B01AE
:1005700086E390E064E041E00E944B0180917B00C3
:10058000813009F46D9A80917A00813009F46F9A74
:1005900080917C00823031F0833061F0813091F4C1
:1005A0006A9A10C06B9A86E390E067E041E00E948F
:1005B0004B0108C06A9A6B9A86E390E067E041E0DD
:1005C0000E944B0180917F00833099F0843028F4A1
:1005D000882351F08230B1F409C0853079F085303C
:1005E00050F0863079F40CC0709A0CC0709A689AFA
:1005F00009C0689A07C0709A699A04C0699A02C0D3
:10060000689A699A6E9A08958FB9769B03C081E0C3
:1006100080938000779BFECF8FB108958FB9769B32
:1006200003C081E0809380008FB10895662321F09C
:10063000613009F087C040C0733031F0743031F060
:10064000713031F020E005C028E403C020E401C08F
:1006500028E08730C9F0883038F4833079F084306E
:1006600081F08130D9F407C08930A1F0893078F069
:100670008A30A1F412C02160297F10C0287F226037
:100680000DC023602B7F0AC02C7F246007C0287F09
:10069000256004C02E7F266001C02760913019F0CC
:1006A000923041F404C089B7816089BF03C089B723
:1006B000826089BF23BF46C0733031F0743031F09F
:1006C000713031F020E005C028E403C020E401C00F
:1006D00028E0843001F1853038F4823089F08330AD
:1006E000A0F4813011F509C08630C1F0863080F069
:1006F0008730B9F08830C9F417C02160297F15C050
:1007000088E082BD287F256010C0287F22600DC050
:1007100023602B7F0AC02C7F246007C0287F2560C0
:1007200004C02E7F266001C02760913019F09230FE
:1007300041F404C089B7806489BF03C089B7806869
:1007400089BF25BD8FB780688FBF0895662319F0D4
:10075000613021F402C04CBF089543BD0895CF938A
:10076000C42F662321F0613009F044C022C02CBFA1
:1007700086E390E063E042E00E940D01C23059F050
:10078000C33081F0C130B1F583B78F7D83BF83B7AC
:10079000806183BF2FC083B7806283BF83B78F7EA2
:1007A00083BF28C083B7806283BF83B7806183BF64
:1007B00021C023BD80E390E067E042E00E940D018C
:1007C000C23059F0C33081F0C130A1F485B58F7DBE
:1007D00085BD85B5806185BD0DC085B5806285BD4F
:1007E00085B58F7E85BD06C085B5806285BD85B522
:1007F000806185BDCF910895CF93C42F662319F0F2
:100800006130B1F51BC02CBF86E390E063E042E0AD
:100810000E940D01C43059F0C53011F0CC2341F5D0
:1008200083B78F7E83BF83B7806283BF21C083B7C6
:10083000806183BF83B7806283BF1AC023BD80E31A
:1008400090E067E042E00E940D01C43059F0C530ED
:1008500011F0CC2369F485B58F7E85BD85B58062A6
:1008600085BD06C085B5806185BD85B5806285BDC5
:10087000CF910895CF93C42F662319F06130B1F55D
:100880001BC02CBF86E390E063E042E00E940D01B4
:10089000C63021F0C73049F0CC2341F583B78F7EB5
:1008A00083BF83B7806283BF21C083B7806183BF6A
:1008B00083B7806283BF1AC023BD80E390E067E006
:1008C00042E00E940D01C63021F0C73049F0CC2330
:1008D00069F485B58F7E85BD85B5806285BD06C00E
:1008E00085B5806185BD85B5806285BDCF91089550
:1008F0001F920F920FB60F9211242F933F934F9395
:100900005F936F937F938F939F93AF93BF93EF9377
:10091000FF93E0918D00F0918E00309709F00995DA
:10092000FF91EF91BF91AF919F918F917F916F91C7
:100930005F914F913F912F910F900FBE0F901F909D
:1009400018951F920F920FB60F9211242F933F9379
:100950004F935F936F937F938F939F93AF93BF93C7
:10096000EF93FF93E0918F00F0919000309709F0A2
:100970000995FF91EF91BF91AF919F918F917F91D9
:100980006F915F914F913F912F910F900FBE0F90FC
:100990001F9018951F920F920FB60F9211242F934C
:1009A0003F934F935F936F937F938F939F93AF93F7
:1009B000BF93EF93FF93E0919100F09192003097F5
:1009C00009F00995FF91EF91BF91AF919F918F91A0
:1009D0007F916F915F914F913F912F910F900FBE3B
:1009E0000F901F901895FF920F931F93CF93DF9353
:1009F00080918100823051F0833031F0813011F0EC
:100A0000C0E005C0C8E003C0C8E101C0C0E18091FA
:100A10008200813051F1813020F0823009F06BC0CA
:100A200048C06091890070918A0080918B009091FC
:100A30008C000E94E20F20E030E040E051E40E9490
:100A400070109B01AC0160E074E284E79BE40E94BB
:100A5000490F20E030E040E05FE30E94E40EF62E14
:100A6000072F182FD92F92E04BC060918900709109
:100A70008A0080918B0090918C000E94E20F20E010
:100A800030E040E851E40E9470109B01AC0160E04E
:100A900074E284E79BE40E94490F20E030E040E0EC
:100AA0005FE30E94E40EF62E072F182FD92F90E057
:100AB00027C06091890070918A0080918B0090918D
:100AC0008C000E94E20F9B01AC010E94E50E9B018D
:100AD000AC0160E074E284E79BE40E94490F20E0EF
:100AE00030E040E05FE30E94E40EF62E072F182F5F
:100AF000D92F90E005C0FF2400E010E0D0E090E0A6
:100B000080918300813009F4916080918400843069
:100B1000B1F0853038F4823071F0833070F4813078
:100B2000A9F407C0863079F0863058F0873071F428
:100B30000CC0C0680BC0C06409C0C06207C0C06CF4
:100B400005C0C06A03C0C06601C0C06E8091850048
:100B5000843009F4C4609BB9C0BD8F2D902FA12FA4
:100B6000BD2FBC01CD010E94B60F70BD8F2D902FFF
:100B7000A12FBD2FBC01CD010E94B60F69B9CAB922
:100B8000DF91CF911F910F91FF9008955D9BFECF54
:100B900020918500243041F44AB19C0120703170CD
:100BA000242F2E7F232B2AB98CB908955D9B0DC06D
:100BB00020918500243041F44AB19C0120703170AD
:100BC000242F2E7F232B2AB98CB908955F9BFECF4B
:100BD0008BB18C7189F05C9B04C083E080938800AA
:100BE0000BC05B9B04C082E08093880005C05A9BC9
:100BF00003C081E08093880080918500843051F4A7
:100C00008AB190E0827090709695982F882797957A
:100C1000879502C080E090E02CB130E0822B932BCE
:100C200008955F9B22C08BB18C7189F05C9B04C0DE
:100C300083E0809388000BC05B9B04C082E08093BC
:100C4000880005C05A9B03C081E080938800809192
:100C50008500843069F48AB190E082709070969536
:100C6000982F88279795879505C080E090E002C06F
:100C700080E090E02CB130E0822B932B08950F930D
:100C80001F93CF93DF9300D000D000D0CDB7DEB755
:100C900049835A836B837C838D839E8309811A8168
:100CA000C80142E00E940D01C8016C8142E00E942F
:100CB0000D01C8016D8142E00E940D01C8016E81E5
:100CC00042E00E940D0126960FB6F894DEBF0FBEDB
:100CD000CDBFDF91CF911F910F910895EF92FF92B9
:100CE0000F931F93CF93DF9300D000D000D0CDB7E8
:100CF000DEB749835A836B837C838D839E83122F57
:100D0000E980FA80422F4170C7010E944B01012FF8
:100D100010E0A8014270507055954795C7016C814D
:100D20000E944B01A8014470507055954795559508
:100D30004795C7016D810E944B0108701070A80192
:100D4000559547955595479555954795C7016E819A
:100D50000E944B0126960FB6F894DEBF0FBECDBFA2
:100D6000DF91CF911F910F91FF90EF900895CF9356
:100D7000DF9300D00F92CDB7DEB769837A83682FF7
:100D80008B8389819A8142E00E940D010F900F9020
:100D90000F90DF91CF910895EF92FF921F93CF9321
:100DA000DF9300D00F92CDB7DEB769837A838B8350
:100DB000E980FA80182FC701612F41E00E944B01A2
:100DC0008FEF91EEA4E081509040A040E1F700C089
:100DD0000000C701612F40E00E944B018FEF91EEB0
:100DE000A4E081509040A040E1F700C000000F90C7
:100DF0000F900F90DF91CF911F91FF90EF9008958A
:100E0000282F862F972F622F40E00E940D01089512
:100E1000282F862F972F622F0E946B010895BF9273
:100E2000CF92DF92EF92FF920F931F93CF93DF93B6
:100E3000CDB7DEB72A970FB6F894DEBF0FBECDBF91
:100E400009831A83F22E2B83D32E3C83C42E4D8329
:100E5000B52E5E836F83788789879A8709811A8187
:100E6000C801622F0E946B018823B1F08FE792E3E3
:100E7000A2E081509040A040E1F700C00000C8010E
:100E80006F2D0E946B01882309F457C0E3E9F0E05D
:100E9000EE0DF11D80815AC0C8016D2D0E946B01BD
:100EA0008823A9F08FE792E3A2E081509040A04010
:100EB000E1F700C00000C8016D2D0E946B0188237E
:100EC000F1F1E3E9F0E0EE0DF11D84813FC0C801CE
:100ED0006C2D0E946B018823A9F08FE792E3A2E0BA
:100EE00081509040A040E1F700C00000C8016C2D87
:100EF0000E946B01882329F1E3E9F0E0EE0DF11D7A
:100F0000808524C0C8016B2D0E946B018823D9F015
:100F10008FE792E3A2E081509040A040E1F700C04B
:100F20000000C8016B2D0E946B01882371F0E3E97A
:100F3000F0E0EE0DF11D848509C080E007C080E07F
:100F400005C080E003C080E001C080E02A960FB6B3
:100F5000F894DEBF0FBECDBFDF91CF911F910F91EF
:100F6000FF90EF90DF90CF90BF9008950F931F9365
:100F7000CF93DF93CDB7DEB72A970FB6F894DEBFD5
:100F80000FBECDBF09831A832B833C834D835E83C1
:100F90006F83788789879A8709811A81C80160E001
:100FA0000E947F01C80160E00E9482012A960FB66C
:100FB000F894DEBF0FBECDBFDF91CF911F910F918F
:100FC00008958F929F92AF92BF92CF92DF92EF924D
:100FD000FF920F931F93CF93DF93CDB7DEB72A977E
:100FE0000FB6F894DEBF0FBECDBF09831A832B83E3
:100FF0003C834D835E83C62E6F83B72E78878987A7
:101000009A87F02ED12EA82E992E802F912F42E074
:101010000E940D01802F912F6C2D41E00E944B0109
:10102000F9821A83CF82B886A9869A862B813C8161
:101030004D815E816C2D7B2D8A2D992DEE240E9491
:101040000F07882391F0F982DA82CF82B886A986C9
:101050009A862B813C814D815E816C2D7B2D8A2D62
:10106000992D0E940F07882E01C088248F2D9D2D59
:101070006C2D40E00E940D018FE19EE40197F1F795
:1010800000C000008F2D9D2D6B2D42E00E940D01B0
:101090008F2D9D2D6B2D41E00E944B010F2DF9826C
:1010A000DA82CF82B886A9869A861D2D2B813C8153
:1010B0004D815E816C2D7B2D8A2D992DEE24E3943C
:1010C0000E940F07882389F0F982DA82CF82B886DE
:1010D000A9869A862B813C814D815E816C2D7B2D6A
:1010E0008A2D992D0E940F07882E8F2D9D2D6B2DF7
:1010F00040E00E940D018FE19EE40197F1F700C0EE
:1011000000008F2D9D2D6A2D42E00E940D018F2D34
:101110009D2D6A2D41E00E944B010F2DF982DA824C
:10112000CF82B886A9869A861D2D2B813C814D8160
:101130005E816C2D7B2D8A2D992DEE246894E1F82B
:101140000E940F07882389F0F982DA82CF82B8865D
:10115000A9869A862B813C814D815E816C2D7B2DE9
:101160008A2D992D0E940F07882E8F2D9D2D6A2D77
:1011700040E00E940D018FE19EE40197F1F700C06D
:1011800000008F2D9D2D692D42E00E940D018F2DB5
:101190009D2D692D41E00E944B010F2DF982DA82CD
:1011A000CF82B886A9869A861D2D2B813C814D81E0
:1011B0005E816C2D7B2D8A2D992D0F2EF3E0EF2E65
:1011C000F02D0E940F07882389F0F982DA82CF82FE
:1011D000B886A9869A862B813C814D815E816C2DD3
:1011E0007B2D8A2D992D0E940F07882E8F2D9D2DE6
:1011F000692D40E00E940D018FE19EE40197F1F717
:1012000000C00000882D2A960FB6F894DEBF0FBEEE
:10121000CDBFDF91CF911F910F91FF90EF90DF90A5
:10122000CF90BF90AF909F908F9008950F931F9392
:10123000CF93DF93CDB7DEB728970FB6F894DEBF14
:101240000FBECDBF29833A834B835C836D837E833E
:101250008F83988709811A81C801642F42E00E9418
:101260000D01C8016C8142E00E940D01C8016D8131
:1012700042E00E940D01C8016E8142E00E940D0112
:1012800028960FB6F894DEBF0FBECDBFDF91CF9189
:101290001F910F910895CF92DF92EF92FF920F93DB
:1012A0001F93CF93DF93CDB7DEB728970FB6F8948F
:1012B000DEBF0FBECDBF29833A83F42E4B83E52ECC
:1012C0005C83D62E6D83C72E7E838F83988709819A
:1012D0001A81882321F0813009F0A8C04AC09130DA
:1012E00099F0913030F09230D1F0933009F041C054
:1012F0002BC0C801642F41E00E944B01C8016E2D34
:1013000040E00E944B013FC0C801642F40E00E94B2
:101310004B01C8016E2D41E00E944B0149C0C8013C
:10132000642F41E00E944B01C8016E2D40E00E94F5
:101330004B01C8016D2D41E00E944B01C8016C2D8D
:1013400040E00E944B0149C0C801642F41E00E9467
:101350004B01C8016E2D40E00E944B01C8016D2D6C
:1013600040E00E944B01C8016C2D41E00E944B01FE
:1013700049C09130E9F0913030F0923071F1933002
:1013800009F054C03FC0C8016F2D41E00E944B01DD
:10139000C8016E2D40E00E944B01C8016D2D41E057
:1013A0000E944B01C8016C2D40E00E944B013EC0E1
:1013B000C8016F2D40E00E944B01C8016E2D41E035
:1013C0000E944B01C8016F2D40E00E944B01C801F3
:1013D0006E2D41E00E944B0129C0C8016F2D41E0F4
:1013E0000E944B01C8016E2D40E00E944B01C801D4
:1013F0006D2D41E00E944B01C8016C2D40E00E9420
:101400004B0114C0C8016F2D41E00E944B01C8017F
:101410006E2D40E00E944B01C8016D2D40E00E94FE
:101420004B01C8016C2D41E00E944B0128960FB67C
:10143000F894DEBF0FBECDBFDF91CF911F910F910A
:10144000FF90EF90DF90CF900895C098C198EFE99A
:10145000FFE03197F1F700C00000C29AEFE9FFE02A
:101460003197F1F700C000009BB39F709BBB9BB30B
:10147000282F207F922B9BBBEFE9FFE03197F1F7FC
:1014800000C00000C298EFE9FFE03197F1F700C01B
:101490000000C29AEFE9FFE03197F1F700C00000C9
:1014A0009BB39F709BBB9BB38295807F892B8BBB2B
:1014B0008FE99FE00197F1F700C00000C298EFE9C3
:1014C000FFE03197F1F700C0000008958AB3806F04
:1014D0008ABB87B3876087BB82E00E94250A88E2C7
:1014E0000E94250A8CE00E94250A81E00E94250ABC
:1014F000089581E00E94250A0895C09AC198EFE9F5
:10150000FFE03197F1F700C00000C29AEFE9FFE079
:101510003197F1F700C000009BB39F709BBB9BB35A
:10152000282F207F922B9BBBEFE9FFE03197F1F74B
:1015300000C00000C298EFE9FFE03197F1F700C06A
:101540000000C29AEFE9FFE03197F1F700C0000018
:101550009BB39F709BBB9BB38295807F892B8BBB7A
:101560008FE99FE00197F1F700C00000C298EFE912
:10157000FFE03197F1F700C000000895CF93DF93AB
:10158000EC018881882331F021960E947D0A89919F
:101590008823D9F7DF91CF910895813041F08130D0
:1015A00078F0823039F0833041F080E00AC0862F35
:1015B000806407C0862F806104C0862F806501C0CB
:1015C000862F80680E94250A0895CF93DF93CDB7B8
:1015D000DEB765970FB6F894DEBF0FBECDBFDC0156
:1015E000CB01BE016F5F7F4F4AE050E00E94D310F5
:1015F000CE0101960E94BE0A65960FB6F894DEBF32
:101600000FBECDBFDF91CF9108950F931F93CF935E
:10161000DF93082F192F683080F4862F80640E9492
:10162000250AC02FD12F10E089910E947D0A1F5FEB
:101630001830D1F782E00E94250ADF91CF911F91E7
:101640000F9108950F931F93CF93DF93182F092FB6
:10165000D62FC72F862F972F612F42E00E940D01B2
:101660008D2F9C2F612F402F0E944B01DF91CF9136
:101670001F910F9108951F93CF93DF93C82F862F4B
:10168000972F162FD72F423018F0433091F404C013
:101690006C2F0E944B010DC0862F972F6C2F0E943C
:1016A0006B0141E0811140E0812F9D2F6C2F0E9442
:1016B0004B01DF91CF911F9108950895CF93DF9350
:1016C00000D00F92CDB7DEB769837A83682F8B8302
:1016D00089819A8140E00E940D010F900F900F9038
:1016E000DF91CF910895CF93DF9300D00F92CDB7C4
:1016F000DEB769837A83682F8B8389819A810E9400
:101700006B010F900F900F90DF91CF910895CF93C1
:10171000DF93EC01888199816A814B810E940D01E0
:10172000888199816A810E946B018C838093A300D8
:10173000DF91CF9108951F93CF93DF93EC011C812C
:10174000888199816A810E946B011817E9F08FEFF7
:1017500090E7A2E081509040A040E1F700C0000077
:101760001C81888199816A810E946B01181771F030
:10177000888199816A810E946B018C839091A3007A
:10178000891731F081E005C080E003C080E001C02E
:1017900082E0DF91CF911F9108950F931F93CF9314
:1017A000DF93182F092FD62FC72F862F972F612F42
:1017B00042E00E940D018D2F9C2F612F402F0E942F
:1017C0004B01DF91CF911F910F910895282F423047
:1017D00028F4862F972F622F0E944B0108952FB572
:1017E00022602FBD2EB528602EBD2EB520612EBDE6
:1017F00028E833E137BD26BD2EB521602EBD2EB5BC
:1018000022602EBD413419F04234A1F51AC020E007
:1018100030E04AE753E40E9470100E94B60FDC01EA
:10182000CB019BBD8ABD8FB580688FBD80E390E002
:1018300065E042E00E940D0185E38A95F1F7000022
:10184000089520E030E04AE753E40E9470100E94BF
:10185000B60FDC01CB0199BD88BD8FB580628FBD0D
:1018600080E390E064E042E00E940D0185E38A9508
:10187000F1F7000008958091A400882391F460910D
:1018800060007091610080916200909163000E94FD
:10189000160381E062E00E94ED0181E08093A400E4
:1018A00008958091A4008130D9F515BC08B606FED4
:1018B0001CC064B570E061507F4F882777FD80952C
:1018C000982F0E94E40F2BEB38EB4DE85FE30E946A
:1018D00070100E94B10FDC01CB019093AE00809399
:1018E000AD0088B7806488BF14C064B570E080E044
:1018F00090E00E94E40F2BEB38EB4DE85FE30E9491
:1019000070100E94B10FDC01CB019093AE00809368
:10191000AD0081E063E00E94ED011092A40014BCD0
:1019200008958091A500882391F4609164007091DE
:10193000650080916600909167000E94160380E028
:1019400062E00E94ED0181E08093A50008958091FE
:10195000A5008130D9F513BE08B600FE1CC062B7E1
:1019600070E061507F4F882777FD8095982F0E9407
:10197000E40F2BEB38EB4DE85FE30E9470100E9400
:10198000B10FDC01CB019093AC008093AB0088B722
:10199000816088BF14C062B770E080E090E00E9470
:1019A000E40F2BEB38EB4DE85FE30E9470100E94D0
:1019B000B10FDC01CB019093AC008093AB0080E0D1
:1019C00063E00E94ED011092A50012BE08950F93EE
:1019D0001F93CF93DF93262F682F192FD22FC72F56
:1019E000822F972F42E00E940D018D2F9C2F612F97
:1019F00040E00E940D018FEC97E00197F1F700C0E5
:101A00000000123019F01330B1F40BC080E063E035
:101A10000E94ED0181E99CE090937700809376002D
:101A20000AC081E063E00E94ED018BE39CE09093AB
:101A30007500809374008FB780688FBFDF91CF915E
:101A40001F910F9108950F931F93CF93DF93182F3A
:101A5000092FD62FC72F862F972F612F41E00E9485
:101A60004B0180E58A95F1F78D2F9C2F612F40E087
:101A70000E944B01023019F0033059F405C08091E7
:101A8000AB009091AC0007C08091AD009091AE008A
:101A900002C080E090E0DF91CF911F910F910895F7
:101AA00040916C0050916D0060916E0070916F00DC
:101AB00080917000909171000E947C0081E0809381
:101AC000780010927B001092790010927C000E94A6
:101AD0007E02609168007091690080916A00909127
:101AE0006B000E94160360916800709169008091FC
:101AF0006A0090916B004CE90E94A60380E390E09D
:101B000064E042E00E940D0180E390E065E042E085
:101B10000E940D0180E390E066E042E00E940D012A
:101B200080E390E067E042E00E940D0183E390E0F3
:101B300060E042E00E940D0183E390E061E042E05A
:101B40000E940D018FB78F778FBF089580E00E94AC
:101B500004038093A80090E001978333910508F077
:101B6000C5C0865D9F4FFC01EE0FFF1F0590F491ED
:101B7000E02D099480E390E064E00E946B018130E5
:101B800021F485E00E940403089586E00E94040386
:101B9000089580E390E065E00E946B01813021F4BC
:101BA00085E00E940403089586E00E9404030895DE
:101BB00080E390E066E00E946B01813021F485E0D3
:101BC0000E940403089586E00E940403089580E3C0
:101BD00090E067E00E946B01813021F485E00E9473
:101BE0000403089586E00E940403089583E390E0CF
:101BF00060E00E946B01813021F485E00E940403C3
:101C0000089586E00E940403089583E390E061E074
:101C10000E946B01813021F485E00E940403089545
:101C200086E00E940403089580E00E9404038093EC
:101C3000A70083E30E940403089580E390E064E03A
:101C400041E00E944B01089580E390E064E040E0B1
:101C50000E944B01089580E390E065E041E00E941E
:101C60004B01089580E390E065E040E00E944B0165
:101C7000089580E390E066E041E00E944B01089502
:101C800080E390E066E040E00E944B01089580E32D
:101C900090E067E041E00E944B01089580E390E00E
:101CA00067E040E00E944B01089583E390E060E02C
:101CB00041E00E944B01089583E390E060E040E042
:101CC0000E944B0108958FB780688FBF83E390E037
:101CD00061E041E00E944B0108958FB78F778FBF7D
:101CE00083E390E061E040E00E944B0108951F9281
:101CF0000F920FB60F9211242F933F934F935F9340
:101D00006F937F938F939F93AF93BF93EF93FF93C3
:101D10008091A6008F5F8093A6008091A6008A30F4
:101D2000E8F11092A60040916C0050916D00609116
:101D30006E0070916F0080917000909171000E9410
:101D4000ED009C01B901882777FD8095982F0E94AE
:101D5000E40F20E030E040E85EE30E9470100E9453
:101D6000B60FDC01CB019093AA008093A9002091CB
:101D7000A7008091A9009091AA0030E028173907A8
:101D800038F483E390E061E041E00E944B0106C03B
:101D900083E390E061E041E00E944B01FF91EF910D
:101DA000BF91AF919F918F917F916F915F914F9173
:101DB0003F912F910F900FBE0F901F9018950E948A
:101DC000500D0E94A60DFDCF5058BB27AA270ED05C
:101DD0004DC13ED130F043D120F031F49F3F11F49A
:101DE0001EF433C10EF4E095E7FB29C1E92F4FD172
:101DF00080F3BA17620773078407950718F071F428
:101E00009EF567C10EF4E0950B2EBA2FA02D0B01A5
:101E1000B90190010C01CA01A0011124FF27591B2F
:101E200099F0593F50F4503E68F11A16F040A22F35
:101E3000232F342F4427585FF3CF469537952795A6
:101E4000A795F0405395C9F77EF41F16BA0B620BA5
:101E5000730B840BBAF09150A1F0FF0FBB1F661FEC
:101E6000771F881FC2F70EC0BA0F621F731F841F2F
:101E700048F4879577956795B795F7959E3F08F055
:101E8000B3CF9395880F08F09927EE0F9795879514
:101E900008950CD0EBC0E3D040F0DAD030F021F45C
:101EA0005F3F19F0CCC0511115C1CFC0F0D098F3ED
:101EB0009923C9F35523B1F3951B550BBB27AA27CB
:101EC00062177307840738F09F5F5F4F220F331F3D
:101ED000441FAA1FA9F333D00E2E3AF0E0E830D009
:101EE00091505040E695001CCAF729D0FE2F27D00C
:101EF000660F771F881FBB1F261737074807AB07DA
:101F0000B0E809F0BB0B802DBF01FF2793585F4F4E
:101F10002AF09E3F510568F092C0DCC05F3FECF3B1
:101F2000983EDCF3869577956795B795F7959F5F13
:101F3000C9F7880F911D9695879597F90895E1E067
:101F4000660F771F881FBB1F621773078407BA07C6
:101F500020F0621B730B840BBA0BEE1F88F7E09521
:101F6000089504D06894B111B5C0089598D088F050
:101F70009F5790F0B92F9927B751A0F0D1F0660F75
:101F8000771F881F991F1AF0BA95C9F712C0B13090
:101F900081F09FD0B1E008959CC0672F782F8827EB
:101FA000B85F39F0B93FCCF3869577956795B395CF
:101FB000D9F73EF490958095709561957F4F8F4F3E
:101FC0009F4F0895E89409C097FB3EF49095809543
:101FD000709561957F4F8F4F9F4F9923A9F0F92FEF
:101FE00096E9BB279395F695879577956795B7956D
:101FF000F111F8CFFAF4BB0F11F460FF1BC06F5F53
:102000007F4F8F4F9F4F16C0882311F096E911C064
:10201000772321F09EE8872F762F05C0662371F085
:1020200096E8862F70E060E02AF09A95660F771F99
:10203000881FDAF7880F9695879597F9089597F98D
:102040009F6780E870E060E008959FEF80EC08955E
:1020500000240A9416161706180609060895002487
:102060000A9412161306140605060895092E039401
:10207000000C11F4882352F0BB0F40F4BF2B11F475
:1020800060FF04C06F5F7F4F8F4F9F4F089557FDD4
:102090009058440F551F59F05F3F71F04795880FD6
:1020A00097FB991F61F09F3F79F08795089512166D
:1020B00013061406551FF2CF4695F1DF08C0161619
:1020C00017061806991FF1CF8695710561050894CA
:1020D0000895E894BB2766277727CB0197F90895E1
:1020E0000BD0C4CFB5DF28F0BADF18F0952309F084
:1020F000A6CFABCF1124EECFCADFA0F3959FD1F3CB
:10210000950F50E0551F629FF001729FBB27F00DA5
:10211000B11D639FAA27F00DB11DAA1F649F6627FA
:10212000B00DA11D661F829F2227B00DA11D621F49
:10213000739FB00DA11D621F839FA00D611D221F03
:10214000749F3327A00D611D231F849F600D211DE7
:10215000822F762F6A2F11249F5750408AF0E1F08A
:1021600088234AF0EE0FFF1FBB1F661F771F881FD3
:1021700091505040A9F79E3F510570F060CFAACF13
:102180005F3FECF3983EDCF3869577956795B795BE
:10219000F795E7959F5FC1F7FE2B880F911D9695E8
:1021A000879597F90895FB019F01423074F04532FD
:1021B00064F4642F77270E94F910805D8A330CF055
:1021C000895D8193CB010097A1F71082C9010C941E
:1021D000E910DC01FC01672F71917723E1F7329759
:1021E00004C07C916D9370836291AE17BF07C8F3F2
:1021F0000895AA1BBB1B51E107C0AA1FBB1FA6174E
:10220000B70710F0A61BB70B881F991F5A95A9F79F
:0E22100080959095BC01CD010895F894FFCF04
:10221E000100080000000800000108020102000091
:02222E000000AE
:00000001FF
