:100000000C942A000C9468010C9491010C94470004
:100010000C9447000C9447000C9447000C94470044
:100020000C9447000C9447000C94FF110C9447006B
:100030000C9422020C9447000C9447000C94470047
:100040000C9447000C9447000C9447000C94470014
:100050000C94470011241FBECFE5D8E0DEBFCDBF12
:1000600012E0A0E6B0E0EEE9F8E202C005900D92E1
:10007000A434B107D9F712E0A4E4B2E001C01D92A4
:10008000A937B107E1F70E941F120C944D140C948C
:1000900000000F931F93CF93DF9300D000D000D0C8
:1000A000CDB7DEB7142F49835A836B837C838D834E
:1000B0009E83723099F0733028F4772399F0713071
:1000C00039F40EC0743031F0743030F0753061F0B6
:1000D00000E00BC003E009C004E007C005E005C074
:1000E00006E003C007E001C002E089E390E0612F71
:1000F00040E00E94DA001430A9F0153038F41230D4
:1001000069F0133068F4113039F414C0163071F00E
:10011000163050F0173061F080E00DC082E00BC067
:1001200083E009C084E007C085E005C086E003C025
:1001300087E001C081E09B81913009F408609A81D9
:10014000992319F0923021F402C0806401C0806CC0
:100150009E81913009F4806287B906B9379A269654
:100160000FB6F894DEBF0FBECDBFDF91CF911F91C8
:100170000F910895CF93DF9300D000D000D0CDB77A
:10018000DEB749835A836B837C838D839E83369A43
:10019000369BFECF84B190E045B1342F20E0822B16
:1001A000932B26960FB6F894DEBF0FBECDBFDF911E
:1001B000CF910895FC01413029F04130A8F0423040
:1001C000B1F524C0218181E090E0AC0102C0440F70
:1001D000551F6A95E2F7BA01842F809582238183A7
:1001E0008281682B62830895218181E090E0AC01D7
:1001F00002C0440F551F6A95E2F7BA016095862F39
:10020000822381838281682362830895218181E032
:1002100090E0AC0102C0440F551F6A95E2F7BA01A5
:10022000822F842B81838281609568236283089565
:10023000FC01442379F04130D1F4228181E090E047
:10024000AC0102C0440F551F6A95E2F7BA01622B58
:1002500062830895228181E090E0AC0102C0440FE6
:10026000551F6A95E2F7BA0160956223628308958B
:10027000FC01208141E050E0CA01062E02C0880F37
:10028000991F0A94E2F730E08223932302C09595E8
:1002900087956A95E2F70895FC0161830895FC0152
:1002A00062830895FC01828180E00895E199FECF88
:1002B00007B600FCFDCF9FBB8EBB6DBBE29AE19AF7
:1002C0000895E199FECF9FBB8EBBE09A8DB3089550
:1002D0001F920F920FB60F9211242F933F934F93BB
:1002E0005F936F937F938F939F93AF93BF93EF939E
:1002F000FF93E0914802F0914902309709F0099587
:10030000FF91EF91BF91AF919F918F917F916F91ED
:100310005F914F913F912F910F900FBE0F901F90C3
:1003200018951F920F920FB60F9211242F933F939F
:100330004F935F936F937F938F939F93AF93BF93ED
:10034000EF93FF93E0914602F0914702309709F056
:100350000995FF91EF91BF91AF919F918F917F91FF
:100360006F915F914F913F912F910F900FBE0F9022
:100370001F901895813071F1813020F0823009F0A2
:1003800060C050C0613071F0613028F0623089F097
:100390006330E1F415C085B78E7F85BF85B78D7F4B
:1003A00085BF14C085B7816085BF85B78D7F85BF48
:1003B0000DC085B78E7F85BF85B7826085BF06C0BB
:1003C00085B7816085BF85B7826085BF8BB7806444
:1003D0008BBF0895613071F0613028F0623089F090
:1003E0006330E1F415C085B78B7F85BF85B7877F04
:1003F00085BF14C085B7886085BF85B78B7F85BFF3
:100400000DC085B7877F85BF85B7846085BF06C06F
:1004100085B7886085BF85B7846085BF8BB78068E6
:100420008BBF0895623019F0633041F404C084B783
:100430008F7B84BF03C084B7806484BF8BB7806226
:100440008BBF08951F920F920FB60F9211242F9316
:100450003F934F935F936F937F938F939F93AF934C
:10046000BF93EF93FF93E0914F02F09150023097CA
:1004700009F00995FF91EF91BF91AF919F918F91F5
:100480007F916F915F914F913F912F910F900FBE90
:100490000F901F9018951DB81EB880914A028130A8
:1004A00009F072C080914B02882319F0813039F530
:1004B00007C086E390E066E042E00E94DA001FC0D9
:1004C0006C9A86E390E065E042E00E94DA0086E301
:1004D00090E064E042E00E94DA0086E390E067E0AA
:1004E00042E00E94DA0086E390E065E041E00E948D
:1004F000180186E390E064E041E00E9418018091D9
:100500004D02813009F46D9A80914C02813009F4DA
:100510006F9A80914E02823031F0833061F08130E9
:1005200091F46A9A10C06B9A86E390E067E041E02C
:100530000E94180108C06A9A6B9A86E390E067E00F
:1005400041E00E94180180915102833099F084307B
:1005500028F4882351F08230B1F409C0853079F055
:10056000853050F0863079F40CC0709A0CC0709AC7
:10057000689A09C0689A07C0709A699A04C0699A13
:1005800002C0689A699A6E9A08958FB9769B03C0E3
:1005900081E080935202779BFECF8FB108958FB98F
:1005A000769B03C081E0809352028FB10895662349
:1005B00021F0613009F087C040C0733031F07430F1
:1005C00031F0713031F020E005C028E403C020E4B0
:1005D00001C028E08730C9F0883038F4833079F0E2
:1005E000843081F08130D9F407C08930A1F089309E
:1005F00078F08A30A1F412C02160297F10C0287FD2
:1006000022600DC023602B7F0AC02C7F246007C0AE
:10061000287F256004C02E7F266001C027609130AE
:1006200019F0923041F404C089B7816089BF03C0DA
:1006300089B7826089BF23BF46C0733031F0743000
:1006400031F0713031F020E005C028E403C020E42F
:1006500001C028E0843001F1853038F4823089F01F
:100660008330A0F4813011F509C08630C1F08630A6
:1006700080F08730B9F08830C9F417C02160297F35
:1006800015C088E082BD287F256010C0287F2260C9
:100690000DC023602B7F0AC02C7F246007C0287FF9
:1006A000256004C02E7F266001C02760913019F0BC
:1006B000923041F404C089B7806489BF03C089B710
:1006C000806889BF25BD8FB780688FBF0895662376
:1006D00019F0613021F402C04CBF089543BD089564
:1006E000CF93C42F662321F0613009F044C022C0AB
:1006F0002CBF86E390E063E042E00E94DA00C23063
:1007000059F0C33081F0C130B1F583B78F7D83BF1D
:1007100083B7806183BF2FC083B7806283BF83B7F5
:100720008F7E83BF28C083B7806283BF83B7806119
:1007300083BF21C023BD80E390E067E042E00E94D8
:10074000DA00C23059F0C33081F0C130A1F485B570
:100750008F7D85BD85B5806185BD0DC085B5806205
:1007600085BD85B58F7E85BD06C085B5806285BD9A
:1007700085B5806185BDCF910895CF93C42F662341
:1007800019F06130B1F51BC02CBF86E390E063E047
:1007900042E00E94DA00C43059F0C53011F0CC2399
:1007A00041F583B78F7E83BF83B7806283BF21C04B
:1007B00083B7806183BF83B7806283BF1AC023BDC4
:1007C00080E390E067E042E00E94DA00C43059F034
:1007D000C53011F0CC2369F485B58F7E85BD85B514
:1007E000806285BD06C085B5806185BD85B58062A6
:1007F00085BDCF910895CF93C42F662319F0613042
:10080000B1F51BC02CBF86E390E063E042E00E949C
:10081000DA00C63021F0C73049F0CC2341F583B768
:100820008F7E83BF83B7806283BF21C083B780611F
:1008300083BF83B7806283BF1AC023BD80E390E08B
:1008400067E042E00E94DA00C63021F0C73049F08C
:10085000CC2369F485B58F7E85BD85B5806285BD65
:1008600006C085B5806185BD85B5806285BDCF91A7
:1008700008951F920F920FB60F9211242F933F935A
:100880004F935F936F937F938F939F93AF93BF9398
:10089000EF93FF93E0915F02F0916002309709F0CF
:1008A0000995FF91EF91BF91AF919F918F917F91AA
:1008B0006F915F914F913F912F910F900FBE0F90CD
:1008C0001F9018951F920F920FB60F9211242F931D
:1008D0003F934F935F936F937F938F939F93AF93C8
:1008E000BF93EF93FF93E0916102F0916202309722
:1008F00009F00995FF91EF91BF91AF919F918F9171
:100900007F916F915F914F913F912F910F900FBE0B
:100910000F901F9018951F920F920FB60F921124EF
:100920002F933F934F935F936F937F938F939F93F7
:10093000AF93BF93EF93FF93E0916302F091640252
:10094000309709F00995FF91EF91BF91AF919F9179
:100950008F917F916F915F914F913F912F910F9068
:100960000FBE0F901F901895FF920F931F93CF9378
:10097000DF9380915302823051F0833031F0813027
:1009800011F0C0E005C0C8E003C0C8E101C0C0E18B
:1009900080915402813051F1813020F0823009F091
:1009A0006BC048C060915B0270915C0280915D02F7
:1009B00090915E020E94221320E030E040E051E47A
:1009C0000E94B0139B01AC0160E074E284E79BE4F9
:1009D0000E94891220E030E040E05FE30E94241290
:1009E000F62E072F182FD92F92E04BC060915B0293
:1009F00070915C0280915D0290915E020E942213D0
:100A000020E030E040E851E40E94B0139B01AC01CB
:100A100060E074E284E79BE40E94891220E030E009
:100A200040E05FE30E942412F62E072F182FD92FE3
:100A300090E027C060915B0270915C0280915D0242
:100A400090915E020E9422139B01AC010E9425122C
:100A50009B01AC0160E074E284E79BE40E94891290
:100A600020E030E040E05FE30E942412F62E072FE2
:100A7000182FD92F90E005C0FF2400E010E0D0E04F
:100A800090E080915502813009F491608091560286
:100A90008430B1F0853038F4823071F0833070F4F6
:100AA0008130A9F407C0863079F0863058F087305D
:100AB00071F40CC0C0680BC0C06409C0C06207C03C
:100AC000C06C05C0C06A03C0C06601C0C06E809122
:100AD0005702843009F4C4609BB9C0BD8F2D902F9C
:100AE000A12FBD2FBC01CD010E94F61270BD8F2D2C
:100AF000902FA12FBD2FBC01CD010E94F61269B924
:100B0000CAB9DF91CF911F910F91FF9008955D9B1E
:100B1000FECF20915702243041F44AB19C0120704D
:100B20003170242F2E7F232B2AB98CB908955D9B19
:100B30000DC020915702243041F44AB19C0120702D
:100B40003170242F2E7F232B2AB98CB908955F9BF7
:100B5000FECF8BB18C7189F05C9B04C083E08093E5
:100B60005A020BC05B9B04C082E080935A0205C00E
:100B70005A9B03C081E080935A02809157028430CF
:100B800051F48AB190E0827090709695982F8827E2
:100B90009795879502C080E090E02CB130E0822BE1
:100BA000932B08955F9B22C08BB18C7189F05C9B65
:100BB00004C083E080935A020BC05B9B04C082E0B8
:100BC00080935A0205C05A9B03C081E080935A0269
:100BD00080915702843069F48AB190E082709070FD
:100BE0009695982F88279795879505C080E090E087
:100BF00002C080E090E02CB130E0822B932B08956E
:100C00000F931F93CF93DF9300D000D000D0CDB7C8
:100C1000DEB749835A836B837C838D839E830981EE
:100C20001A81C80142E00E94DA00C8016C8142E0EA
:100C30000E94DA00C8016D8142E00E94DA00C8011A
:100C40006E8142E00E94DA0026960FB6F894DEBF6D
:100C50000FBECDBFDF91CF911F910F910895EF92FD
:100C6000FF920F931F93CF93DF9300D000D000D05B
:100C7000CDB7DEB749835A836B837C838D839E8394
:100C8000122FE980FA80422F4170C7010E9418019B
:100C9000012F10E0A8014270507055954795C7018B
:100CA0006C810E941801A8014470507055954795B9
:100CB00055954795C7016D810E9418010870107005
:100CC000A801559547955595479555954795C70161
:100CD0006E810E94180126960FB6F894DEBF0FBEF3
:100CE000CDBFDF91CF911F910F91FF90EF900895AD
:100CF000CF93DF9300D00F92CDB7DEB769837A83AD
:100D0000682F8B8389819A8142E00E94DA000F90DC
:100D10000F900F90DF91CF910895EF92FF921F9364
:100D2000CF93DF9300D00F92CDB7DEB769837A837C
:100D30008B83E980FA80182FC701612F41E00E9460
:100D400018018FEF91EEA4E081509040A040E1F7B0
:100D500000C00000C701612F40E00E9418018FEF22
:100D600091EEA4E081509040A040E1F700C0000067
:100D70000F900F900F90DF91CF911F91FF90EF9008
:100D80000895282F862F972F622F40E00E94DA00C7
:100D90000895282F862F972F622F0E9438010895DB
:100DA000BF92CF92DF92EF92FF920F931F93CF9358
:100DB000DF93CDB7DEB72A970FB6F894DEBF0FBE2C
:100DC000CDBF09831A83F22E2B83D32E3C83C42EEE
:100DD0004D83B52E5E836F83788789879A870981D3
:100DE0001A81C801622F0E9438018823B1F08FEF69
:100DF00099EFA0E081509040A040E1F700C00000D2
:100E0000C8016F2D0E943801882309F457C0E3E31D
:100E1000F2E0EE0DF11D80815AC0C8016D2D0E94D7
:100E200038018823A9F08FEF99EFA0E0815090401E
:100E3000A040E1F700C00000C8016D2D0E943801FC
:100E40008823F1F1E3E3F2E0EE0DF11D84813FC070
:100E5000C8016C2D0E9438018823A9F08FEF99EF0B
:100E6000A0E081509040A040E1F700C00000C80120
:100E70006C2D0E943801882329F1E3E3F2E0EE0DA6
:100E8000F11D808524C0C8016B2D0E943801882384
:100E9000D9F08FEF99EFA0E081509040A040E1F7AA
:100EA00000C00000C8016B2D0E943801882371F03A
:100EB000E3E3F2E0EE0DF11D848509C080E007C098
:100EC00080E005C080E003C080E001C080E02A9699
:100ED0000FB6F894DEBF0FBECDBFDF91CF911F914B
:100EE0000F91FF90EF90DF90CF90BF9008950F93F8
:100EF0001F93CF93DF93CDB7DEB72A970FB6F89441
:100F0000DEBF0FBECDBF09831A832B833C834D8385
:100F10005E836F83788789879A8709811A81C801E0
:100F200060E00E944C01C80160E00E944F012A96D7
:100F30000FB6F894DEBF0FBECDBFDF91CF911F91EA
:100F40000F9108958F929F92AF92BF92CF92DF92AE
:100F5000EF92FF920F931F93CF93DF93CDB7DEB73E
:100F60002A970FB6F894DEBF0FBECDBF09831A8350
:100F70002B833C834D835E83C62E6F83B72E788789
:100F800089879A87F02ED12EA82E992E802F912F07
:100F900042E00E94DA00802F912F6C2D41E00E94E8
:100FA0001801F9821A83CF82B886A9869A862B8186
:100FB0003C814D815E816C2D7B2D8A2D992DEE24F7
:100FC0000E94D006882391F0F982DA82CF82B88617
:100FD000A9869A862B813C814D815E816C2D7B2D6B
:100FE0008A2D992D0E94D006882E01C088248F2D2D
:100FF0009D2D6C2D40E00E94DA008FE19EE4019768
:10100000F1F700C000008F2D9D2D6B2D42E00E9456
:10101000DA008F2D9D2D6B2D41E00E9418010F2DC0
:10102000F982DA82CF82B886A9869A861D2D2B8115
:101030003C814D815E816C2D7B2D8A2D992DEE2476
:10104000E3940E94D006882389F0F982DA82CF8265
:10105000B886A9869A862B813C814D815E816C2D54
:101060007B2D8A2D992D0E94D006882E8F2D9D2DA7
:101070006B2D40E00E94DA008FE19EE40197F1F7CA
:1010800000C000008F2D9D2D6A2D42E00E94DA00E5
:101090008F2D9D2D6A2D41E00E9418010F2DF982A0
:1010A000DA82CF82B886A9869A861D2D2B813C8153
:1010B0004D815E816C2D7B2D8A2D992DEE246894B7
:1010C000E1F80E94D006882389F0F982DA82CF8283
:1010D000B886A9869A862B813C814D815E816C2DD4
:1010E0007B2D8A2D992D0E94D006882E8F2D9D2D27
:1010F0006A2D40E00E94DA008FE19EE40197F1F74B
:1011000000C000008F2D9D2D692D42E00E94DA0065
:101110008F2D9D2D692D41E00E9418010F2DF98220
:10112000DA82CF82B886A9869A861D2D2B813C81D2
:101130004D815E816C2D7B2D8A2D992D0F2EF3E034
:10114000EF2EF02D0E94D006882389F0F982DA82F2
:10115000CF82B886A9869A862B813C814D815E819B
:101160006C2D7B2D8A2D992D0E94D006882E8F2DD7
:101170009D2D692D40E00E94DA008FE19EE40197E9
:10118000F1F700C00000882D2A960FB6F894DEBF54
:101190000FBECDBFDF91CF911F910F91FF90EF90C8
:1011A000DF90CF90BF90AF909F908F9008950F9356
:1011B0001F93CF93DF93CDB7DEB728970FB6F89480
:1011C000DEBF0FBECDBF29833A834B835C836D8323
:1011D0007E838F83988709811A81C801642F42E03A
:1011E0000E94DA00C8016C8142E00E94DA00C80166
:1011F0006D8142E00E94DA00C8016E8142E00E94E7
:10120000DA0028960FB6F894DEBF0FBECDBFDF918F
:10121000CF911F910F910895CF92DF92EF92FF929D
:101220000F931F93CF93DF93CDB7DEB728970FB6F9
:10123000F894DEBF0FBECDBF29833A83F42E4B83D3
:10124000E52E5C83D62E6D83C72E7E838F83988791
:1012500009811A81882321F0813009F0A8C04AC091
:10126000913099F0913030F09230D1F0933009F014
:1012700041C02BC0C801642F41E00E941801C80181
:101280006E2D40E00E9418013FC0C801642F40E06D
:101290000E941801C8016E2D41E00E94180149C04A
:1012A000C801642F41E00E941801C8016E2D40E082
:1012B0000E941801C8016D2D41E00E941801C8016B
:1012C0006C2D40E00E94180149C0C801642F41E024
:1012D0000E941801C8016E2D40E00E941801C8014B
:1012E0006D2D40E00E941801C8016C2D41E00E9464
:1012F000180149C09130E9F0913030F0923071F12D
:10130000933009F054C03FC0C8016F2D41E00E94E6
:101310001801C8016E2D40E00E941801C8016D2D12
:1013200041E00E941801C8016C2D40E00E941801A4
:101330003EC0C8016F2D40E00E941801C8016E2D0B
:1013400041E00E941801C8016F2D40E00E94180181
:10135000C8016E2D41E00E94180129C0C8016F2DFF
:1013600041E00E941801C8016E2D40E00E94180162
:10137000C8016D2D41E00E941801C8016C2D40E0AC
:101380000E94180114C0C8016F2D41E00E9418018D
:10139000C8016E2D40E00E941801C8016D2D40E08B
:1013A0000E941801C8016C2D41E00E941801289686
:1013B0000FB6F894DEBF0FBECDBFDF91CF911F9166
:1013C0000F91FF90EF90DF90CF900895C098C19853
:1013D000EFE9FFE03197F1F700C00000C29AEFE9B2
:1013E000FFE03197F1F700C000009BB39F709BBBFB
:1013F0009BB3282F207F922B9BBBEFE9FFE0319717
:10140000F1F700C00000C298EFE9FFE03197F1F773
:1014100000C00000C29AEFE9FFE03197F1F700C089
:1014200000009BB39F709BBB9BB38295807F892BF1
:101430008BBB8FE99FE00197F1F700C00000C298D5
:10144000EFE9FFE03197F1F700C0000008958AB39B
:10145000806F8ABB87B3876087BB82E00E94E60902
:1014600088E20E94E6098CE00E94E60981E00E9481
:10147000E609089581E00E94E6090895C09AC1989E
:10148000EFE9FFE03197F1F700C00000C29AEFE901
:10149000FFE03197F1F700C000009BB39F709BBB4A
:1014A0009BB3282F207F922B9BBBEFE9FFE0319766
:1014B000F1F700C00000C298EFE9FFE03197F1F7C3
:1014C00000C00000C29AEFE9FFE03197F1F700C0D9
:1014D00000009BB39F709BBB9BB38295807F892B41
:1014E0008BBB8FE99FE00197F1F700C00000C29825
:1014F000EFE9FFE03197F1F700C000000895CF93C6
:10150000DF93EC018881882331F021960E943E0A06
:1015100089918823D9F7DF91CF910895813041F0E7
:10152000813078F0823039F0833041F080E00AC0B9
:10153000862F806407C0862F806104C0862F806557
:1015400001C0862F80680E94E6090895CF93DF933B
:10155000CDB7DEB765970FB6F894DEBF0FBECDBF2F
:10156000DC01CB01BE016F5F7F4F4AE050E00E947B
:101570001314CE0101960E947F0A65960FB6F89467
:10158000DEBF0FBECDBFDF91CF9108950F931F93A4
:10159000CF93DF93082F192F683080F4862F806453
:1015A0000E94E609C02FD12F10E089910E943E0AC7
:1015B0001F5F1830D1F782E00E94E609DF91CF91DA
:1015C0001F910F9108950F931F93CF93DF93182FBF
:1015D000092FD62FC72F862F972F612F42E00E9409
:1015E000DA008D2F9C2F612F402F0E941801DF9170
:1015F000CF911F910F9108951F93CF93DF93C82F21
:10160000862F972F162FD72F423018F0433091F4A2
:1016100004C06C2F0E9418010DC0862F972F6C2FCD
:101620000E94380141E0811140E0812F9D2F6C2FF5
:101630000E941801DF91CF911F9108950895CF93D3
:10164000DF9300D00F92CDB7DEB769837A83682F1E
:101650008B8389819A8140E00E94DA000F900F907D
:101660000F90DF91CF910895CF93DF9300D00F9229
:10167000CDB7DEB769837A83682F8B8389819A819E
:101680000E9438010F900F900F90DF91CF91089535
:10169000CF93DF93EC01888199816A814B810E940D
:1016A000DA00888199816A810E9438018C83809355
:1016B0006502DF91CF9108951F93CF93DF93EC01E3
:1016C0001C81888199816A810E9438011817E9F08C
:1016D0008FEF90E7A2E081509040A040E1F700C07A
:1016E00000001C81888199816A810E943801181745
:1016F00071F0888199816A810E9438018C83909170
:101700006502891731F081E005C080E003C080E008
:1017100001C082E0DF91CF911F9108950F931F9335
:10172000CF93DF93182F092FD62FC72F862F972FF0
:10173000612F42E00E94DA008D2F9C2F612F402FF5
:101740000E941801DF91CF911F910F910895282FCA
:10175000423028F4862F972F622F0E941801089597
:101760002FB522602FBD2EB528602EBD2EB520616D
:101770002EBD28E833E137BD26BD2EB521602EBD34
:101780002EB522602EBD413419F04234A1F51AC0A5
:1017900020E030E04AE753E40E94B0130E94F612C2
:1017A000DC01CB019BBD8ABD8FB580688FBD80E316
:1017B00090E065E042E00E94DA0085E38A95F1F767
:1017C0000000089520E030E04AE753E40E94B0139F
:1017D0000E94F612DC01CB0199BD88BD8FB58062F5
:1017E0008FBD80E390E064E042E00E94DA0085E390
:1017F0008A95F1F70000089580916602882391F49C
:10180000609160007091610080916200909163002E
:101810000E94D70281E062E00E94BA0181E08093D9
:1018200066020895809166028130D9F515BC08B62C
:1018300006FE1CC064B570E061507F4F882777FDBD
:101840008095982F0E9424132BEB38EB4DE85FE333
:101850000E94B0130E94F112DC01CB01909375023B
:101860008093740288B7806488BF14C064B570E048
:1018700080E090E00E9424132BEB38EB4DE85FE30F
:101880000E94B0130E94F112DC01CB01909375020B
:101890008093740281E063E00E94BA0110926602B4
:1018A00014BC089580916702882391F460916400CC
:1018B0007091650080916600909167000E94D70248
:1018C00080E062E00E94BA0181E08093670208959F
:1018D000809167028130D9F513BE08B600FE1CC0A6
:1018E00062B770E061507F4F882777FD8095982F11
:1018F0000E9424132BEB38EB4DE85FE30E94B013FA
:101900000E94F112DC01CB0190937302809372026A
:1019100088B7816088BF14C062B770E080E090E053
:101920000E9424132BEB38EB4DE85FE30E94B013C9
:101930000E94F112DC01CB0190937302809372023A
:1019400080E063E00E94BA011092670212BE08951F
:101950000F931F93CF93DF93262F682F192FD22F2A
:10196000C72F822F972F42E00E94DA008D2F9C2FE5
:10197000612F40E00E94DA008FEC97E00197F1F7C9
:1019800000C00000123019F01330B1F40BC080E039
:1019900063E00E94BA0182E59CE090934902809343
:1019A00048020AC081E063E00E94BA018CEF9BE02C
:1019B00090934702809346028FB780688FBFDF9174
:1019C000CF911F910F9108950F931F93CF93DF93A2
:1019D000182F092FD62FC72F862F972F612F41E061
:1019E0000E94180180E58A95F1F78D2F9C2F612FB9
:1019F00040E00E941801023019F0033059F405C08C
:101A0000809172029091730207C08091740290914C
:101A1000750202C080E090E0DF91CF911F910F919D
:101A200008951092700210926F022FB720682FBF96
:101A300020916F023091700282179307C8F78FB719
:101A40008F778FBF08950F931F93009129021091F4
:101A50002A0220912B0230912C0240912D025091AC
:101A60002E0260912F02709130028091310290918C
:101A700032020E94A20780937602882331F30E94EB
:101A80003E0A84E190E00E94110D609171026B5F4B
:101A900081E00E948E0A8AE20E943E0A1F910F9105
:101AA00008952F923F924F925F926F927F928F9202
:101AB0009F92AF92BF92CF92DF92EF92FF920F93DD
:101AC0001F93CF93DF930F2EF8E6CF2EF0E0DF2E9B
:101AD000F02DCCEBD2E00F2EF8ECEF2EFF24F02D02
:101AE0000F2EFDEDAF2EF0E0BF2EF02D0F2EF2EFFA
:101AF0008F2EF0E09F2EF02D0F2EF8EE6F2EF0E0DF
:101B00007F2EF02D0F2EF7EC4F2EF0E05F2EF02DF4
:101B10000F2EF2ED2F2EF0E03F2EF02D0E943A0A0C
:101B2000C6010E947F0A81E060E00E948E0A8091D7
:101B30006C02823329F489E790E00E947F0A06C094
:101B4000813321F48AE890E00E947F0A0091290203
:101B500010912A0220912B0230912C0240912D02EB
:101B600050912E0260912F027091300280913102CB
:101B7000909132020E94A20780937602882371F42A
:101B800090916C02923311F4A70101C0AE01209133
:101B9000690230916A0242175307C0F68433A1F5F7
:101BA00080916C02813381F50E943A0A8AE990E0C3
:101BB0000E947F0A81E060E00E948E0A8BEA90E03A
:101BC0000E947F0A0091290210912A0220912B0283
:101BD00030912C0240912D0250912E0260912F02E3
:101BE0007091300280913102909132020E94A207DE
:101BF00080937602882341F48091690290916A0271
:101C000022E08D3B9207F0F20E943A0A8091760220
:101C10008433D9F1853358F48233E9F0833340F5C6
:101C2000882309F455C0813309F049C006C08533C3
:101C3000C9F1883308F043C04BC08CEB90E00E94A0
:101C40007F0A88E08093780289E08093770281E0C0
:101C50000E94C5023DC0C2010E947F0A80E18093BC
:101C6000780281E18093770282E00E94C50230C051
:101C7000C1010E947F0A82E18093780283E1809310
:101C8000770283E00E94C50223C0C5010E947F0A3B
:101C900084E18093780285E18093770284E00E945A
:101CA000C50216C0C3010E947F0A86E180937802B4
:101CB00087E18093770280E20E94C50209C00E94FA
:101CC0003A0AC4010E947F0A82E390E00E94110D4B
:101CD00080917602873349F48091690290916A027B
:101CE00022E08D3B920708F419CFDF91CF911F912D
:101CF0000F91FF90EF90DF90CF90BF90AF909F90AB
:101D00008F907F906F905F904F903F902F900895AD
:101D10000F931F930E94270A0091290210912A0213
:101D200020912B0230912C0240912D0250912E02D5
:101D300060912F02709130028091310290913202B5
:101D40000E947707609125027091260280912702F8
:101D5000909128020E94D70260912502709126027C
:101D600080912702909128024CE90E94670381E04C
:101D700080934A0210924D0280934B0210924E02C1
:101D800010924C02109251020E944B0286E390E0A6
:101D900064E042E00E94DA008FB780688FBF1F9135
:101DA0000F9108952F923F924F925F926F927F9280
:101DB0008F929F92AF92BF92CF92DF92EF92FF925B
:101DC0000F931F93CF93DF9381E090E00E94610116
:101DD0008F3F09F052C00E943A0A8EEF90E00E94B5
:101DE0007F0A81E060E00E948E0A80E191E00E941B
:101DF0007F0A84E690E00E94110D0E943A0A81E277
:101E000091E00E947F0A81E065E00E948E0A1092B4
:101E100071020E94230D8091710290E00296609100
:101E200076020E945601809171028F5F8093710249
:101E3000853078F30E943A0A84E391E00E947F0A99
:101E400081E065E00E948E0A109271020E94230DCB
:101E50008091710290E00896609176020E9456018E
:101E6000809171028F5F80937102853078F381E0F9
:101E700090E060E00E945601AFC281E090E00E94D5
:101E80006101882309F090C20E943A0A87E491E038
:101E90000E947F0A81E060E00E948E0A85E591E061
:101EA0000E947F0A0091290210912A0220912B02A0
:101EB00030912C0240912D0250912E0260912F0200
:101EC0007091300280913102909132020E94A207FB
:101ED00080937602882331F380936C020E943A0A41
:101EE00080916C02982F9153923008F052C29091D9
:101EF0002402903331F481E090E06AE20E945601BE
:101F00006BC2813319F586E691E00E947F0A81E079
:101F100065E00E948E0A10927102C1E00E94230DBA
:101F20008091710290E002960E94610180936D029F
:101F300090917602891711F0C0936E028091710220
:101F40008F5F80937102853048F324C0823311F58E
:101F500087E791E00E947F0A81E065E00E948E0A97
:101F600010927102C1E00E94230D8091710290E0F5
:101F700008960E94610180936D0290917602891704
:101F800011F0C0936E02809171028F5F8093710295
:101F9000853048F380916E028130E1F40E943A0A64
:101FA00088E891E00E947F0A81E060E00E948E0A4A
:101FB00087E991E00E947F0A809124020E943E0AF4
:101FC00080E991E00E94110D80912402815080935C
:101FD000240202C20E943A0A80916C02813309F005
:101FE000B6C18FB780688FBF10926A0210926902E3
:101FF0000F2EF6EACF2EF1E0DF2EF02D0F2EF5EBAF
:10200000AF2EF1E0BF2EF02D0F2EF2EF8F2EF0E06D
:102010009F2EF02D0F2EF4EC4F2EF1E05F2EF02DC1
:102020000F2EF0EE2F2EF1E03F2EF02D0F2EF6EFBB
:102030006F2EF1E07F2EF02D0E94510D80917602DF
:10204000863309F0CDC00E943A0AC6010E947F0A79
:1020500081E060E00E948E0AC5010E947F0A009123
:10206000290210912A0220912B0230912C024091DA
:102070002D0250912E0260912F02709130028091BA
:102080003102909132020E94A20780937602882347
:1020900049F42091690230916A0292E02D3B3907A0
:1020A000F0F278C0813309F075C00E943A0AC2018B
:1020B0000E947F0A8FED0E943E0A83E40E943E0A3E
:1020C00080E06BE00E948E0A0091290210912A02A2
:1020D00020912B0230912C0240912D0250912E0222
:1020E00060912F0270913002809131029091320202
:1020F0000E94A20780937602882341F4209169020E
:1021000030916A0292E02D3B3907F0F20E943E0ABC
:1021100080917602880F982F990F990F890F805E12
:10212000809368020091290210912A0220912B02CB
:1021300030912C0240912D0250912E0260912F027D
:102140007091300280913102909132020E94A20778
:1021500080937602882341F42091690230916A02CB
:1021600092E02D3B3907F0F20E943E0A90917602F0
:1021700080916802890F80538093680284E190E027
:102180000E94110D83E30E94C502809168020E94A3
:10219000C5021DC0823381F40E943A0A82ED91E0AB
:1021A0000E947F0A88E18093780289E18093770218
:1021B00081E20E94C50214C0803391F00E943A0A65
:1021C000C4010E947F0A82E390E00E94110D809179
:1021D000690290916A0222E08D3B920708F433CFA6
:1021E00080916C02823319F428EC30E002C02CEBB1
:1021F00032E08091690290916A0228173907F8F05D
:102200008AE090E00E94110D80E00E94C502809358
:102210006B02863029F0833391F0853051F404C08D
:10222000C1010E947F0A0BC084EE91E00E947F0AE8
:1022300006C00E943A0A87EE91E00E947F0A10923F
:10224000760280916C02823319F428EC30E002C0EF
:102250002CEB32E08091690290916A0228173907CD
:1022600008F45AC080916B02833309F455C081E0B1
:1022700060E00E948E0AC3010E947F0ACCEBD2E08C
:102280000F2EF8ECEF2EFF24F02D00912902109173
:102290002A0220912B0230912C0240912D02509164
:1022A0002E0260912F027091300280913102909144
:1022B00032020E94A20780937602882371F49091E3
:1022C0006C02923311F4A70101C0AE0120916902A2
:1022D00030916A0242175307C0F6813351F08233BE
:1022E00028F48823C9F0803371F416C0823359F47E
:1022F00005C0809178020E94C5020EC080917702CD
:102300000E94C50209C00E943A0AC4010E947F0AC5
:1023100082E390E00E94110D8091690290916A021F
:1023200022E08D3B920708F487CE0E943A0A87E0AC
:1023300092E00E947F0A82E390E00E94110D8FB725
:102340008F778FBF10926A021092690245C08FB7D3
:1023500080688FBF10926A02109269020E94510D2C
:102360008091690290916A02893C9105B8F30E94BC
:102370003A0A87E092E00E947F0A82E390E00E949E
:10238000110D8FB78F778FBF10926A02109269027A
:1023900023C00E943A0A82EF90E00E947F0A82E303
:1023A00090E00E94110D18C081E090E00E94610150
:1023B0008A3291F487E00E94C5020E943A0A84E1C1
:1023C00092E00E947F0A88EE93E00E94110D81E066
:1023D00090E060E00E945601DF91CF911F910F9134
:1023E000FF90EF90DF90CF90BF90AF909F908F9035
:1023F0007F906F905F904F903F902F9008951F9225
:102400000F920FB60F9211248F939F9380916F02BA
:102410009091700201969093700280936F02809168
:10242000690290916A02019690936A028093690210
:102430009F918F910F900FBE0F901F9018950E9443
:10244000880E0E94D20EFDCF5058BB27AA270ED06F
:102450004DC13ED130F043D120F031F49F3F11F413
:102460001EF433C10EF4E095E7FB29C1E92F4FD1EB
:1024700080F3BA17620773078407950718F071F4A1
:102480009EF567C10EF4E0950B2EBA2FA02D0B011F
:10249000B90190010C01CA01A0011124FF27591BA9
:1024A00099F0593F50F4503E68F11A16F040A22FAF
:1024B000232F342F4427585FF3CF46953795279520
:1024C000A795F0405395C9F77EF41F16BA0B620B1F
:1024D000730B840BBAF09150A1F0FF0FBB1F661F66
:1024E000771F881FC2F70EC0BA0F621F731F841FA9
:1024F00048F4879577956795B795F7959E3F08F0CF
:10250000B3CF9395880F08F09927EE0F979587958D
:1025100008950CD0EBC0E3D040F0DAD030F021F4D5
:102520005F3F19F0CCC0511115C1CFC0F0D098F366
:102530009923C9F35523B1F3951B550BBB27AA2744
:1025400062177307840738F09F5F5F4F220F331FB6
:10255000441FAA1FA9F333D00E2E3AF0E0E830D082
:1025600091505040E695001CCAF729D0FE2F27D085
:10257000660F771F881FBB1F261737074807AB0753
:10258000B0E809F0BB0B802DBF01FF2793585F4FC8
:102590002AF09E3F510568F092C0DCC05F3FECF32B
:1025A000983EDCF3869577956795B795F7959F5F8D
:1025B000C9F7880F911D9695879597F90895E1E0E1
:1025C000660F771F881FBB1F621773078407BA0740
:1025D00020F0621B730B840BBA0BEE1F88F7E0959B
:1025E000089504D06894B111B5C0089598D088F0CA
:1025F0009F5790F0B92F9927B751A0F0D1F0660FEF
:10260000771F881F991F1AF0BA95C9F712C0B13009
:1026100081F09FD0B1E008959CC0672F782F882764
:10262000B85F39F0B93FCCF3869577956795B39548
:10263000D9F73EF490958095709561957F4F8F4FB7
:102640009F4F0895E89409C097FB3EF490958095BC
:10265000709561957F4F8F4F9F4F9923A9F0F92F68
:1026600096E9BB279395F695879577956795B795E6
:10267000F111F8CFFAF4BB0F11F460FF1BC06F5FCC
:102680007F4F8F4F9F4F16C0882311F096E911C0DE
:10269000772321F09EE8872F762F05C0662371F0FF
:1026A00096E8862F70E060E02AF09A95660F771F13
:1026B000881FDAF7880F9695879597F9089597F907
:1026C0009F6780E870E060E008959FEF80EC0895D8
:1026D00000240A9416161706180609060895002401
:1026E0000A9412161306140605060895092E03947B
:1026F000000C11F4882352F0BB0F40F4BF2B11F4EF
:1027000060FF04C06F5F7F4F8F4F9F4F089557FD4D
:102710009058440F551F59F05F3F71F04795880F4F
:1027200097FB991F61F09F3F79F0879508951216E6
:1027300013061406551FF2CF4695F1DF08C0161692
:1027400017061806991FF1CF869571056105089443
:102750000895E894BB2766277727CB0197F908955A
:102760000BD0C4CFB5DF28F0BADF18F0952309F0FD
:10277000A6CFABCF1124EECFCADFA0F3959FD1F344
:10278000950F50E0551F629FF001729FBB27F00D1F
:10279000B11D639FAA27F00DB11DAA1F649F662774
:1027A000B00DA11D661F829F2227B00DA11D621FC3
:1027B000739FB00DA11D621F839FA00D611D221F7D
:1027C000749F3327A00D611D231F849F600D211D61
:1027D000822F762F6A2F11249F5750408AF0E1F004
:1027E00088234AF0EE0FFF1FBB1F661F771F881F4D
:1027F00091505040A9F79E3F510570F060CFAACF8D
:102800005F3FECF3983EDCF3869577956795B79537
:10281000F795E7959F5FC1F7FE2B880F911D969561
:10282000879597F90895FB019F01423074F0453276
:1028300064F4642F77270E943914805D8A330CF08A
:10284000895D8193CB010097A1F71082C9010C9497
:102850002914DC01FC01672F71917723E1F732978E
:1028600004C07C916D9370836291AE17BF07C8F36B
:102870000895AA1BBB1B51E107C0AA1FBB1FA617C7
:10288000B70710F0A61BB70B881F991F5A95A9F719
:0E28900080959095BC01CD010895F894FFCF7E
:10289E000100080000000800312D526F6F6D3120CD
:1028AE0020322D526F6F6D3200332D526F6F6D339C
:1028BE002020342D526F6F6D3400332D526F6F6D9B
:1028CE00332020342D4D6F726500342D526F6F6D95
:1028DE00342020202020352D545600362D4169728B
:1028EE0020436F6E642E372D52455400526F6F6D1C
:1028FE0031202020533A00526F6F6D32202020532A
:10290E003A00526F6F6D33202020533A00526F6F92
:10291E006D34202020533A0054562020202020537E
:10292E003A0057726F6E6720496E70757400576566
:10293E006C636F6D6520746F20536D61727420002F
:10294E002020486F6D652053797374656D202020AB
:10295E000020536574204F776E657220506173733B
:10296E00203A2000205365742047756573742050FB
:10297E00617373203A200053656C656374204D6F4C
:10298E006465203A00312D4F776E65722020322D0E
:10299E00477565737400456E746572204F776E656A
:1029AE0072205061737300456E74657220477565B1
:1029BE00737420506173730057726F6E672050618D
:1029CE007373776F72640072656D61696E207472D5
:1029DE0061696C732000312D54656D7020436F6EEC
:1029EE0074726F6C00322D53746174652020302D1B
:1029FE00524554005365742074656D702E3A205FF5
:102A0E005F00416972436F6E6420202020533A00AC
:102A1E004F4646004F4E004572726F7220696E200F
:102A2E00536C61766500312D4F4E20322D4F464648
:102A3E0020302D524554002020202054696D6520F1
:102A4E004F757400486F6D6520426C6F636B204D3F
:102A5E006F646500320001080233000001020304B6
:102A6E000506073738394134353642313233432380
:042A7E00302A4400B6
:00000001FF
